:100000000C9446000C9484000C94B0000C94DC001A
:100010000C9463000C9463000C9463000C948A07A6
:100020000C9463000C9463000C9439020C946300EC
:100030000C9463000C9424050C9463000C946300EE
:100040000C9463000C9463000C9463000C946300A4
:100050000C9463006865696768743A202000565301
:100060003A2020202020202042533A004C504120AA
:10007000546F6D20486172746F677300486F74200D
:100080004169722042616C6C6F6F6E0011241FBE5B
:10009000CFE5D8E0DEBFCDBF10E0A0E6B0E0E0E203
:1000A000F4E102C005900D92A038B107D9F710E035
:1000B000A0E8B0E001C01D92AB3EB107E1F70E949D
:1000C00031090C940E0A0C9400000E94DF01882371
:1000D00091F090E0019724E6AC01249FC001259F98
:1000E000900D11240E94E8060E94DF01882319F078
:1000F0000E941107F9CF08950895089508959093E7
:1001000065008093640008951F920F920FB60F92BE
:1001100011242F933F934F935F936F937F938F930C
:100120009F93AF93BF93EF93FF93E0916400F0919F
:1001300065000995FF91EF91BF91AF919F918F91CC
:100140007F916F915F914F913F912F910F900FBED3
:100150000F901F901895909363008093620008950C
:100160001F920F920FB60F9211242F933F934F932C
:100170005F936F937F938F939F93AF93BF93EF930F
:10018000FF93E0916200F09163000995FF91EF9178
:10019000BF91AF919F918F917F916F915F914F919F
:1001A0003F912F910F900FBE0F901F901895909335
:1001B00061008093600008951F920F920FB60F9216
:1001C00011242F933F934F935F936F937F938F935C
:1001D0009F93AF93BF93EF93FF93E0916000F091F3
:1001E00061000995FF91EF91BF91AF919F918F9120
:1001F0007F916F915F914F913F912F910F900FBE23
:100200000F901F90189536990AC0806487B986EDC3
:1002100086B93699FECF349A84B195B1089580E0BD
:1002200090E008958FB9779BFECF08958FEF0E94DD
:1002300012018FB10895CF93DF930E941601C82F4A
:10024000D0E0DC2FCC270E9416019E01282BC9018B
:10025000DF91CF910895CF93C82F892F0E9412016B
:100260008C2FCF910C941201282FFC018E2F821B12
:10027000861728F481918FB9779BFECFF7CF089529
:10028000282FFC019FEF8E2F821B861730F49FB919
:10029000779BFECF8FB18193F6CF0895CF93DF93F5
:1002A000EC01C09883E00E941201CE010E942B0154
:1002B0000E941601C09ADF91CF910895EF92FF92AC
:1002C0000F931F93CF93DF931F92CDB7DEB77C01BF
:1002D0008B01C09883E049830E941201C7010E94EC
:1002E0002B014981642FC8010E944001C09A0F90E0
:1002F000DF91CF911F910F91FF90EF900895C098DB
:1003000086E00E941201C09A0895C09884E00E947D
:100310001201C09A0895C09885E00E9412010E94BF
:100320001601C09A08951F93CF93DF93EC01162F07
:100330000E948B0180FDFCCF0E947F01C09882E06B
:100340000E941201CE010E942B01812F0E941201F6
:10035000C09ADF91CF911F910895FF920F931F9341
:10036000CF93DF93EC018B01F42E0E948B0180FD73
:10037000FCCF0E947F01C09882E00E941201CE0152
:100380000E942B016F2DC8010E943401C09ADF9199
:10039000CF911F910F91FF9008958091C0000E940E
:1003A0001201949A00000000949808958F70909123
:1003B000C000907F982B9093C0000C94CD01CF93F8
:1003C000DF9381E00E940301EC01CC3F83E0D8077A
:1003D00088F400000000000081E00E940301C80FC3
:1003E000D91FD695C795C233D10588F0C43482E0B1
:1003F000D80778F0CC3B82E0D80768F0C63183E0BC
:10040000D80758F0CE33D34050F485E009C081E0DE
:1004100007C082E005C083E003C084E001C080E043
:10042000DF91CF91089580918100882339F00E9457
:10043000DF01811108C01092810008950E94DF0140
:1004400080938100089580E00895CF93C09180004B
:10045000CC2341F00E94DF01811108C0109280007E
:100460008C2F05C00E94DF018093800080E0CF9137
:1004700008951F920F920FB60F9211248F939F939E
:1004800080919800909199000196909399008093A3
:1004900098008091C1008F5F8093C1008091C2005D
:1004A00091E0980F9093C2008A3008F484C0809144
:1004B000AF0080FF09C08091B0009091B10001961B
:1004C0009093B1008093B0008091AF0081FF09C08C
:1004D0008091B2009091B30001969093B300809305
:1004E000B2008091AF0082FF09C08091B40090916A
:1004F000B50001969093B5008093B4008091AF0051
:1005000083FF09C08091B6009091B7000196909347
:10051000B7008093B6008091AF0084FF09C080913E
:10052000B8009091B90001969093B9008093B800FB
:100530008091AF0085FF09C08091BA009091BB0007
:1005400001969093BB008093BA008091AF0086FF24
:1005500009C08091BC009091BD0001969093BD00B0
:100560008093BC008091AF0087FF09C08091BE00DE
:100570009091BF0001969093BF008093BE00809140
:100580009D0080FF16C08091C3009091C400892B0C
:1005900039F415BC80919D008E7F80939D0009C029
:1005A0008091C3009091C40001979093C400809300
:1005B000C3001092C2009F918F910F900FBE0F90B9
:1005C0001F90189590919D00916090939D0070935D
:1005D000C4006093C300809583BD8EE185BD0895FE
:1005E00090919D009E7F90939D00982F909593BD34
:1005F000882319F08EE185BD089515BC08951092E9
:10060000C10090E001962091C10030E0821793076D
:10061000D4F70895CF93DF93EC01209729F08AE077
:100620000E94FF022197F9CFDF91CF910895D09AD0
:10063000D89881E090E00E940A03D0980895CF9363
:10064000DF9300D0CDB7DEB780E00E940301853094
:10065000910530F089839A830E9417039A818981DA
:100660000F900F90DF91CF910895019710F0000047
:10067000FCCF08958295807F9091C0009F70982B49
:100680009093C0000E94CD01C49A82E390E00E9442
:100690003503C4980895CF93C82F82958F700E9418
:1006A0003A038C2F0E943A0386E990E0CF910C9494
:1006B0003503C3980E944B0386E990E00C94350300
:1006C0006068813009F4605C862F0C94590383E0E4
:1006D0000E943A0380E596E40E94350383E00E947D
:1006E0003A038CE795E10E94350383E00E943A03C8
:1006F0008CE795E10E94350382E00E943A038CE783
:1007000095E10E94350388E20E9459038CE795E148
:100710000E94350388E00E9459038CE795E10E940E
:10072000350381E00E9459038CE795E10E9435036F
:1007300082E00E9459038CE795E10E9435038CE02A
:100740000E9459038CE795E10C94350381E00E94E7
:1007500059038CE795E10C943503C39A0E944B032F
:1007600082E390E00C943503CF93DF93FC018491F6
:10077000EF012196882321F00E94AD03FE01F7CFFF
:10078000DF91CF9108950F931F93CF93DF9300D004
:10079000CDB7DEB78B0189839A830E94A603898136
:1007A0009A810E94B40380EC0E945903C8010F9003
:1007B0000F90DF91CF911F910F910C94B403CF93C1
:1007C000DF93EC018991882319F00E94AD03FACFE1
:1007D000DF91CF910895462F50E06EE970E00E94BE
:1007E000DD098EE990E00C94DF030F931F93CF9304
:1007F000DF931F92CDB7DEB78C01040F111DF801F6
:1008000081918F01882341F0662331F069830E9432
:10081000AD0369816150F3CF0F90DF91CF911F91AC
:100820000F910895EF92FF920F931F93CF93DF9351
:10083000CDB7DEB761970FB6F894DEBF0FBECDBF60
:10084000E42E462F50E08E010F5F1F4FB8010E942B
:10085000DD09F80101900020E9F73197E01BF10B69
:10086000FE2CFE1A1F1454F4FA9480E30E94AD0388
:10087000F110FACFC8010E94DF0306C04F2D419549
:100880006E2DC8010E94F50361960FB6F894DEBF85
:100890000FBECDBFDF91CF911F910F91FF90EF90D1
:1008A0000895CF93C42F0E946003CC2329F080E2E7
:1008B0000E94AD03C150F9CFCF9108951BBA87E0D4
:1008C00088BB8CEF85BB81E682BB1ABA8BEB87BBFA
:1008D00014BA82E981BBF89410BC89E189B91BB8CC
:1008E00086E880BD88E98AB917B886E186B910BE66
:1008F0008FE085BF1BBE14BE8AE083BF87EC8CBF30
:1009000015BC8FEF83BD82E089BF80E58DB981E0A2
:100910008EB9789408955D9BFECF8CB90895CF93DE
:10092000DF93EC018991882319F00E948B04FACFA0
:10093000DF91CF910895CF93DF93FC018491EF0174
:100940002196882321F00E948B04FE01F7CFDF91CE
:10095000CF9108950F931F93CF93DF931F92CDB73D
:10096000DEB78C01040F111DF80181918F018823DE
:1009700041F0662331F069830E948B0469816150E4
:10098000F3CF0F90DF91CF911F910F910895CF93E7
:10099000DF93CDB7DEB761970FB6F894DEBF0FBE19
:1009A000CDBF462F50E0BE016F5F7F4F0E94DD0933
:1009B000CE0101960E948F0461960FB6F894DEBFB7
:1009C0000FBECDBFDF91CF910895EF92FF920F93AD
:1009D0001F93CF93DF93CDB7DEB761970FB6F8942F
:1009E000DEBF0FBECDBFE42E462F50E08E010F5F5D
:1009F0001F4FB8010E94DD09F80101900020E9F7BE
:100A00003197E01BF10BFE2CFE1A1F1454F4FA94DC
:100A100080E30E948B04F110FACFC8010E948F047A
:100A200006C04F2D41956E2DC8010E94AA04619603
:100A30000FB6F894DEBF0FBECDBFDF91CF911F91EF
:100A40000F91FF90EF9008951F920F920FB60F92A3
:100A500011242F938F939F93EF93FF939091820094
:100A600080918300292F281B2032A8F4E091840074
:100A700081E08E0F80938400F0E02CB1EA53FF4FA9
:100A800020839F5F90938200813210F01092840047
:100A90001092C50006C08CB18093870081E08093DE
:100AA000C500FF91EF919F918F912F910F900FBEF5
:100AB0000F901F9018951092C5008091830090911F
:100AC00082009817A1F08F5F80938300809185004A
:100AD000813210F010928500E091850081E08E0F48
:100AE00080938500F0E0EA53FF4F8081089580E015
:100AF00008951092C50020E040918300309182005B
:100B0000341B3617D8F04F5F4093830031E0320F2B
:100B1000E091850041E04E0F40938500F0E0EA53FC
:100B2000FF4F4081FC01E20FF11D408320918500C1
:100B3000213210F010928500232FDECF822F0895EE
:100B40008091820090918300891B089557988CB101
:100B5000809386001092850010928400109283008A
:100B6000109282001092C500579A08950E945E0468
:100B70000E9467030E94B1088FE00E94D6016CE7D3
:100B800070E08CE690E00E94C30388EE93E00E9440
:100B90000A036EE570E084E590E00E94C30380E004
:100BA0000C94D6018F929F92AF92BF92CF92DF9218
:100BB000EF92FF920F931F93CF93DF93CDB7DEB7E2
:100BC00028970FB6F894DEBF0FBECDBF7C010E9400
:100BD000A005863018F480E090E070C00E945B05AC
:100BE00089838B37C1F70E948B040E945B058A833F
:100BF0000E948B04CE0101966C015E0193E0A90E68
:100C0000B11C01E010E04601F60181916F018D37C2
:100C100051F00F5F1F4F0E945B05F50181935F014B
:100C20000E948B04F1CF89818B37A9F68A818B379B
:100C300091F6F401E00FF11F80818D3761F68B8111
:100C4000F70180830730110549F5823321F68C8145
:100C500090E0C09724E6289F8001299F100D112461
:100C60008D8190E0C0974AE0489F9001499F300DE8
:100C70001124020F131F8E8190E0C097080F191FD7
:100C8000128301838AE00E948B04F70180810E9415
:100C90008B046AE0C8010E94C7040EC0043011052D
:100CA00009F099CF823309F496CF8AE00E948B0431
:100CB000F70180810E948B0481E090E028960FB6B6
:100CC000F894DEBF0FBECDBFDF91CF911F910F9182
:100CD000FF90EF90DF90CF90BF90AF909F908F905C
:100CE00008951F93CF93DF9300D0CDB7DEB7162FB3
:100CF000982F8BE779839A830E948B048BE70E945D
:100D00008B04812F0E948B0479819A81113321F405
:100D10006AE0872F0E94C7048DE70E948B048DE74D
:100D20000F900F90DF91CF911F910C948B04CF9374
:100D3000DF93EC0188818233C9F068F48133E9F5EF
:100D40000E9474079A838983688179818A81DF91FF
:100D5000CF910C947106833361F1843371F581E096
:100D600090E090938B0080938A0027C080918A0046
:100D700090918B00892B09F189819A81813921E039
:100D800092073CF088E290E090938900809388007D
:100D900014C097FF05C010928900109288000DC002
:100DA0006AE070E00E945A0970938900609388009D
:100DB00004C010928B0010928A00DF91CF910895A9
:100DC0002FEF3FEFFC01328321832FEF2083089523
:100DD00020918A0030918B00232B41F46AE070E06F
:100DE0000E945A09709389006093880008950E94B8
:100DF000740720918800309189002817390714F072
:100E000080E006C0281B390B81E02230310524F434
:100E10000E945A0881E003C00E945A0880E00C94A6
:100E20006E0843E067E080E00E94510467E080E0E4
:100E30000E9460030E9474076AE00E94EB036BE06B
:100E400080E00E9460036AE08091880090918900B0
:100E50000E94EB0345E063E081E00E94510463E0FF
:100E600081E00E9460030E948707813019F48AE6BE
:100E700090E002C081E790E00E94DF0345E06DE072
:100E800081E00E9451046DE081E00E9460030E94B5
:100E90008407813019F488E790E002C08CE790E085
:100EA0000E94DF030E9474079C01285031092530FD
:100EB000310510F481E016C09C0122513109253022
:100EC000310510F482E00EC09C012C51310925300F
:100ED000310510F484E006C08697059710F488E089
:100EE00001C080E00C94D60160918C0070918D005F
:100EF00080918E0090918F0020E137E240E050E039
:100F00000E946E09C9010895809190000895809112
:100F1000910008951F920F920FB60F921124EF9235
:100F2000FF920F931F932F933F934F935F936F9372
:100F30007F938F939F93AF93BF93EF93FF93809192
:100F40009100813039F488E494EF9093E800809325
:100F5000E70004C01092E8001092E7008091900032
:100F6000813009F05AC084EC99E09093EA008093B4
:100F7000E9008091960090919700892B99F120913A
:100F80008C0030918D0040918E0050918F006091C7
:100F900096007091970080E4E82E84E5F82E89E8A9
:100FA000082F112DE21AF30A040B150B80E090E0D4
:100FB00020EA3FE040E050E00E944A099B01AC017A
:100FC000C801B7010E946E093093EA002093E9003E
:100FD000809196009091970001979093970080934D
:100FE00096001FC020918C0030918D0040918E00A2
:100FF00050918F0060E474E589E890E0621B730B08
:10100000840B950B20EA3FE040E050E00E946E091F
:101010003093EA002093E90004C01092EA00109295
:10102000E90040918C0050918D0060918E0070918C
:101030008F002091E9003091EA008091E7009091C3
:10104000E800820F931FAA2797FDA095BA2F840F5F
:10105000951FA61FB71F80938C0090938D00A093BF
:101060008E00B0938F0080918C0090918D00A091A4
:101070008E00B0918F00B7FF08C010928C001092C4
:101080008D0010928E0010928F00FF91EF91BF9112
:10109000AF919F918F917F916F915F914F913F9110
:1010A0002F911F910F91FF90EF900F900FBE0F9017
:1010B0001F90189580939100813039F480E00E9450
:1010C000250981E00E941F090895882331F481E0F9
:1010D0000E94250980E00E941F09089580939000D6
:1010E000809190008130B9F4209194003091950066
:1010F0008EE190E0821B930B909397008093960073
:10110000109295001092940081E00E94130980E0F3
:101110000E941909089580919000882309F5209173
:101120009600309197008EE190E0AC01421B530B8A
:101130005093930040939200209196003091970035
:10114000821B930B909395008093940010929700CC
:101150001092960080E00E94130981E00E94190914
:1011600008950E94D90810928C0010928D00109260
:101170008E0010928F001092EA001092E9001092F7
:10118000E8001092E70080E00E946E0880E00E9474
:101190005A08F8941FBC88E08EBD8EB583608EBD62
:1011A00083EC99E09BBD8ABD89B7806189BF789443
:1011B000089581B3806681BB84B38C6184BB84B3A2
:1011C0008F7184BB85B3806E85BB82B38F7982BB00
:1011D00085B3837E85BB089583B390E08095909519
:1011E000880F892F881F990B91958170089583B37B
:1011F00090E08095909535E0969587953A95E1F742
:101200008170089583B390E08095909546E096951F
:1012100087954A95E1F78170089595989698AA98D0
:10122000AB98AC980895813011F4959A08959598EB
:101230000895813011F4969A089596980895813012
:1012400011F4AA9A0895AA980895813011F4AC9ADD
:101250000895AC980895813011F4AB9A0895AB9835
:1012600008950E94B6050E94A6050E9465008AE9BD
:1012700090E00E94D205892B41F08AE990E00E941B
:1012800097068AE990E00E94E0060E94F7060E9415
:101290001107EBCFDB018F939F930E948D09BF91C4
:1012A000AF91A29F800D911DA39F900DB29F900DB5
:1012B0001124089597FB072E16F4009407D077FDAC
:1012C00009D00E94980907FC05D03EF490958195BD
:1012D0009F4F0895709561957F4F0895052E97FB58
:1012E0001EF400940E94850957FD07D00E94AC09A6
:1012F00007FC03D04EF40C94850950954095309529
:1013000021953F4F4F4F5F4F089590958095709571
:1013100061957F4F8F4F9F4F08950E94CE09A59FE3
:10132000900DB49F900DA49F800D911D11240895E0
:10133000AA1BBB1B51E107C0AA1FBB1FA617B707FB
:1013400010F0A61BB70B881F991F5A95A9F7809517
:101350009095BC01CD010895A1E21A2EAA1BBB1BDA
:10136000FD010DC0AA1FBB1FEE1FFF1FA217B30771
:10137000E407F50720F0A21BB30BE40BF50B661F87
:10138000771F881F991F1A9469F76095709580954B
:1013900090959B01AC01BD01CF010895A29FB001C2
:1013A000B39FC001A39F700D811D1124911DB29F99
:1013B000700D811D1124911D0895FB019F01E8947A
:1013C0004230C4F04532B4F44A3029F497FB1EF49D
:1013D000909581959F4F642F77270E949809805D93
:1013E0008A330CF0895D8193CB010097A1F716F445
:1013F0005DE251931082C9010C94FE09DC01FC01ED
:10140000672F71917723E1F7329704C07C916D9338
:1014100070836291AE17BF07C8F30895F894FFCFA9
:101420007E007D007C00020001014F50454E2020CF
:1014300000434C4F534544004F4E20004F4646005A
:00000001FF
